:100000000C945E000C9486000C9486000C94860080
:100010000C9486000C9486000C9486000C94860048
:100020000C9486000C9486000C9486000C94860038
:100030000C9486000C9486000C9486000C94860028
:100040000C9478020C9486000C94E8020C94C20282
:100050000C9486000C9486000C9486000C94860008
:100060000C9486000C948600000000080002010039
:100070000003040700000000000000000000000072
:10008000250028002B0000000000240027002A0083
:10009000040404040404040402020202020203032E
:1000A0000303030301020408102040800102040836
:1000B00010200102040810201A031A0511241FBE83
:1000C000CFEFD8E0DEBFCDBF21E0ACE4B1E001C0AE
:1000D0001D92AC3FB207E1F711E0A0E0B1E0E8EE1D
:1000E000FEE002C005900D92AC34B107D9F710E0E4
:1000F000CDE5D0E004C02197FE010E946605CC3515
:10010000D107C9F70E9455030C9467070C940000AF
:1001100090E0FC01EC55FF4F249180579F4FFC016C
:100120008491882399F090E0880F991FFC01EA5789
:10013000FF4FA591B491FC01E458FF4F8591949134
:100140008FB7F894EC91E22BEC938FBF089590E079
:10015000FC01E859FF4F2491FC01EC55FF4F34910D
:10016000FC01E057FF4FE491EE23C9F0222339F060
:10017000233001F1A8F4213019F1223029F1F0E007
:10018000EE0FFF1FE458FF4FA591B4918FB7F8947D
:10019000EC91611126C030953E233C938FBF0895AA
:1001A0002730A9F02830C9F0243049F78091800029
:1001B0008F7D03C0809180008F7780938000DFCF98
:1001C00084B58F7784BDDBCF84B58F7DFBCF8091E5
:1001D000B0008F778093B000D2CF8091B0008F7D38
:1001E000F9CF3E2BDACF3FB7F8948091510190912F
:1001F0005201A0915301B091540126B5A89B05C0AE
:100200002F3F19F00196A11DB11D3FBFBA2FA92F95
:10021000982F8827BC01CD01620F711D811D911D92
:1002200042E0660F771F881F991F4A95D1F70895FE
:10023000AF92BF92CF92DF92EF92FF920F931F93F4
:10024000CF93DF936C017B018B01040F151FEB0132
:100250005E01AE18BF08C017D10759F06991D601E9
:10026000ED91FC910190F081E02DC6010995892B5B
:1002700079F7C501DF91CF911F910F91FF90EF901A
:10028000DF90CF90BF90AF900895FC01538D448DC7
:10029000252F30E0842F90E0821B930B541710F031
:1002A000CF96089501970895FC01918D828D98173E
:1002B00061F0A28DAE0FBF2FB11D5D968C91928D16
:1002C0009F5F9F73928F90E008958FEF9FEF089547
:1002D000FC01918D828D981731F0828DE80FF11D10
:1002E000858D90E008958FEF9FEF0895FC01918D2B
:1002F000228D892F90E0805C9F4F821B91098F7324
:100300009927089585E591E00E94760121E0892BE7
:1003100009F420E0822F089580E090E0892B29F0F5
:100320000E94820181110C9400000895FC01A48DAB
:10033000A80FB92FB11DA35ABF4F2C91848D90E007
:1003400001968F739927848FA689B7892C93A089EA
:10035000B1898C91837080648C93938D848D981374
:1003600006C00288F389E02D80818F7D8083089507
:10037000EF92FF920F931F93CF93DF93EC0181E0F5
:10038000888F9B8D8C8D98131AC0E889F98980819C
:1003900085FF15C09FB7F894EE89FF896083E889CF
:1003A000F98980818370806480839FBF81E090E0C1
:1003B000DF91CF911F910F91FF90EF900895F62E4E
:1003C0000B8D10E00F5F1F4F0F731127E02E8C8DE8
:1003D0008E110CC00FB607FCFACFE889F98980812D
:1003E00085FFF5CFCE010E949601F1CFEB8DEC0F8A
:1003F000FD2FF11DE35AFF4FF0829FB7F8940B8F4A
:10040000EA89FB8980818062CFCFCF93DF93EC01B3
:10041000888D8823B9F0AA89BB89E889F9898C91EC
:1004200085FD03C0808186FD0DC00FB607FCF7CFA8
:100430008C9185FFF2CF808185FFEDCFCE010E94A8
:100440009601E9CFDF91CF9108950F931F93CF933A
:10045000DF93EC0188819981009759F02A813B81D3
:100460002617370730F081E0DF91CF911F910F9170
:1004700008958B016F5F7F4F0E949106009759F09E
:10048000998388831B830A832C813D81232B59F711
:10049000FC011082E8CF80E0E7CFEF92FF920F934C
:1004A0001F93CF93DF93EC017B018A01BA010E9475
:1004B000250228813981811114C02115310519F0D7
:1004C000C9010E940806198218821D821C821B82A3
:1004D0001A82CE01DF91CF911F910F91FF90EF9083
:1004E00008951D830C83B701C9010E946007F1CFF5
:1004F0001F920F920FB60F9211242F933F938F9359
:100500009F93AF93BF9380914D0190914E01A09125
:100510004F01B091500130914C0123E0230F2D3752
:1005200058F50196A11DB11D20934C0180934D01FA
:1005300090934E01A0934F01B093500180915101CF
:1005400090915201A0915301B09154010196A11DC7
:10055000B11D8093510190935201A0935301B09328
:100560005401BF91AF919F918F913F912F910F9027
:100570000FBE0F901F90189526E8230F0296A11D1D
:10058000B11DD2CF1F920F920FB60F9211242F934D
:100590003F934F935F936F937F938F939F93AF930B
:1005A000BF93EF93FF9385E591E00E949601FF9141
:1005B000EF91BF91AF919F918F917F916F915F91DB
:1005C0004F913F912F910F900FBE0F901F90189554
:1005D0001F920F920FB60F9211242F938F939F9318
:1005E000EF93FF93E0916501F09166018081E091C6
:1005F0006B01F0916C0182FD1BC0908180916E01B6
:100600008F5F8F7320916F01821741F0E0916E012F
:10061000F0E0EB5AFE4F958F80936E01FF91EF91C2
:100620009F918F912F910F900FBE0F901F90189553
:100630008081F4CFE5E5F1E01382128288EE93E049
:10064000A0E0B0E084839583A683B7838AE091E03D
:100650009183808385EC90E09587848784EC90E09B
:100660009787868780EC90E0918B808B81EC90E07F
:10067000938B828B82EC90E0958B848B86EC90E060
:10068000978B868B118E128E138E148EE2EFF1E013
:1006900011821082138212821582148250E040E08F
:1006A00065E271E0CF010C944D02CF93DF9300D04F
:1006B00000D000D0CDB7DEB7789484B5826084BD19
:1006C00084B5816084BD85B5826085BD85B5816056
:1006D00085BD80916E00816080936E0010928100D4
:1006E000809181008260809381008091810081608F
:1006F0008093810080918000816080938000809150
:10070000B10084608093B1008091B00081608093DB
:10071000B00080917A00846080937A0080917A00A2
:10072000826080937A0080917A00816080937A0061
:1007300080917A00806880937A001092C1008DE0E9
:100740000E9488008CE00E948800E0916501F09191
:10075000660182E08083E0916101F0916201108284
:10076000E0916301F09164018FEC808310926D0140
:10077000E0916901F0916A0186E08083E091670170
:10078000F0916801808180618083E0916701F09140
:100790006801808188608083E0916701F091680141
:1007A000808180688083E0916701F0916801808199
:1007B0008F7D808390E0A92E90E0B92E85E591E0B1
:1007C0000E947601892B09F44BC00E94F3002B0193
:1007D0003C018AE0C82ED12CE12CF12C0E94F300C0
:1007E0006419750986099709683E7340810591056A
:1007F000A8F321E0C21AD108E108F10888EE480EFA
:1008000083E0581E611C711CC114D104E104F10481
:1008100029F785E591E00E94540189831A820091AD
:10082000F6011091F7010F5F1F4FB80182EF91E0C1
:100830000E942502882311F22091F2013091F301E8
:100840008091F6019091F701BE016F5F7F4F820F9B
:10085000931F0E9460071093F7010093F601AECF3B
:100860000091F6011091F7010115110509F479C005
:10087000C090F201D090F3017601C114D10409F0C7
:100880007DC01A8219821C821B821E821D824AE050
:1008900050E068E171E0CE0101960E944D02E090C7
:1008A000F201F090F301E114F10409F4A3C0009106
:1008B000F6011091F70101151105B9F08D819E81A6
:1008C000080F191FB801CE0101960E942502882346
:1008D00009F490C029813A818D819E81B701820FF0
:1008E000931F0E9460071E830D834D815E81698185
:1008F0007A8185E591E00E94180142E050E063E2D0
:1009000071E085E591E00E94180189819A81009744
:1009100011F00E9408068091F6019091F701892B51
:10092000C1F00091F2011091F30166E271E0C8019B
:100930000E94570761E0892B49F06FE271E0C8011E
:100940000E945707892B09F062C060E08CE00E948A
:10095000A70050E040E065E271E082EF91E00E9484
:100960004D02A114B10409F429CF0E948201882309
:1009700009F424CF0E94000021CF73013701FFEF5B
:100980006F1A7F0AF7018081082E000C990B0E94D4
:100990002305892B91F7015011090C0D1D1DF8013C
:1009A0008081082E000C990B0E942305892B31F0C1
:1009B0000E151F0518F001501109F1CFA8014F5F66
:1009C0005F4F4E195F095093F7014093F601CE1423
:1009D000DF0420F4B701C6010E944E07E091F20146
:1009E000F091F3018091F6019091F701E80FF91F62
:1009F000108247CF89819A81009711F00E940806E2
:100A00001A8219821E821D821C821B826ECF69E3AC
:100A100071E0C8010E94570761E0892B49F062E448
:100A200071E0C8010E945707892B09F092CF60E05E
:100A30008DE08DCF8091F2019091F301009711F03C
:100A40000C940806089591110C942C05803219F02D
:100A500089508550C8F708959927882708952F92BF
:100A60003F924F925F926F927F928F929F92AF923E
:100A7000BF92CF92DF92EF92FF920F931F93CF938B
:100A8000DF93CDB7DEB7CA1BDB0B0FB6F894DEBF22
:100A90000FBECDBF09942A88398848885F846E8448
:100AA0007D848C849B84AA84B984C884DF80EE8092
:100AB000FD800C811B81AA81B981CE0FD11D0FB69B
:100AC000F894DEBF0FBECDBFED010895EE0FFF1FFE
:100AD0000590F491E02D09940F931F93CF93DF932A
:100AE0008230910510F482E090E0E091FA01F091FB
:100AF000FB0130E020E0B0E0A0E0309799F4211550
:100B0000310509F44AC0281B390B24303105D8F5CA
:100B10008A819B816115710589F1FB019383828331
:100B2000FE0111C04081518102811381481759078C
:100B3000E0F04817590799F4109761F012960C935A
:100B4000129713961C933296CF01DF91CF911F918C
:100B50000F9108950093FA011093FB01F4CF211532
:100B6000310551F04217530738F0A901DB019A0112
:100B7000BD01DF01F801C1CFEF01F9CF9093FB0177
:100B80008093FA01CDCFFE01E20FF31F8193919381
:100B90002250310939832883D7CF2091F801309131
:100BA000F901232B41F4209102013091030130938C
:100BB000F9012093F80120910001309101012115E4
:100BC000310541F42DB73EB7409104015091050124
:100BD000241B350BE091F801F091F901E217F307BE
:100BE000A0F42E1B3F0B2817390778F0AC014E5F9D
:100BF0005F4F2417350748F04E0F5F1F5093F901E0
:100C00004093F801819391939FCFF0E0E0E09CCF77
:100C1000CF93DF930097E9F0FC01329713821282A1
:100C2000A091FA01B091FB01ED0130E020E01097B6
:100C3000A1F420813181820F931F2091F80130911E
:100C4000F9012817390709F061C0F093F901E09321
:100C5000F801DF91CF910895EA01CE17DF07E8F59B
:100C60004A815B819E0141155105B1F7E901FB8382
:100C7000EA8349915991C40FD51FEC17FD0761F420
:100C8000808191810296840F951FE9019983888361
:100C9000828193819B838A83F0E0E0E012968D91BC
:100CA0009C9113970097B9F52D913C911197CD0127
:100CB0000296820F931F2091F8013091F9012817B5
:100CC000390739F6309751F51092FB011092FA016D
:100CD000B093F901A093F801BCCFD383C2834081C4
:100CE0005181840F951FC817D90761F44E5F5F4F7C
:100CF00088819981480F591F518340838A819B8144
:100D0000938382832115310509F0B0CFF093FB0165
:100D1000E093FA019ECFFD01DC01C0CF1382128265
:100D2000D7CFB0E0A0E0E7E9F6E00C9431058C0104
:100D3000009751F4CB010E946C058C01C801CDB71E
:100D4000DEB7E0E10C944D05FC01E60FF71F9C01B6
:100D500022503109E217F30708F49DC0D901CD9163
:100D6000DC911197C617D70798F0C530D10530F33D
:100D7000CE0104978617970708F3C61BD70B229757
:100D8000C193D1936D937C93CF010E940806D6CF77
:100D90005B01AC1ABD0A4C018C0E9D1EA091FA019C
:100DA000B091FB01512C412CF12CE12C109731F525
:100DB0008091F8019091F9018815990509F05CC0BE
:100DC0004616570608F058C0809100019091010125
:100DD000009741F48DB79EB74091040150910501F1
:100DE000841B950BE817F90708F055C0F093F9013B
:100DF000E093F801F90171836083A0CF8D919C91FC
:100E0000119712966C90129713967C901397A815D1
:100E1000B90559F56C0142E0C40ED11CCA14DB04BB
:100E200020F1AC014A195B09DA011296159780F09E
:100E30006282738251834083D9016D937C93E11464
:100E4000F10471F0D7011396FC93EE93129776CFCD
:100E500022968C0F9D1FF90191838083F301EFCFC0
:100E6000F093FB01E093FA0169CF4816590608F4A4
:100E70002C017D01D3019ACFCB010E946C057C012E
:100E8000009749F0AE01B8010E944E07C8010E94C8
:100E90000806870153CF10E000E050CFFB01DC01D2
:100EA00002C001900D9241505040D8F70895FB01C7
:100EB000DC018D91019080190110D9F3990B0895EF
:100EC000FB01DC0101900D920020E1F7089510E094
:100ED000CDE5D0E004C0FE010E9466052196CE3526
:080EE000D107C9F7F894FFCF18
:100EE8000000FC01800000000000B8011801450165
:100EF8000502760154016801526563656976656487
:100F08003A20000D0A004C45445F315F4F4E004CBB
:100F180045445F315F4F4646004C45445F325F4F62
:0C0F28004E004C45445F325F4F464600CF
:00000001FF
